{"abi":[{"type":"function","name":"LAUNCH_PRICE_PER_TOKEN","inputs":[],"outputs":[{"name":"","type":"uint256","internalType":"uint256"}],"stateMutability":"view"},{"type":"function","name":"allTokens","inputs":[{"name":"","type":"uint256","internalType":"uint256"}],"outputs":[{"name":"","type":"address","internalType":"address"}],"stateMutability":"view"},{"type":"function","name":"createToken","inputs":[{"name":"name","type":"string","internalType":"string"},{"name":"symbol","type":"string","internalType":"string"},{"name":"supply","type":"uint256","internalType":"uint256"}],"outputs":[],"stateMutability":"payable"},{"type":"function","name":"getAllTokens","inputs":[],"outputs":[{"name":"","type":"address[]","internalType":"address[]"}],"stateMutability":"view"},{"type":"function","name":"tokenByName","inputs":[{"name":"","type":"string","internalType":"string"}],"outputs":[{"name":"","type":"address","internalType":"address"}],"stateMutability":"view"},{"type":"event","name":"TokenLaunched","inputs":[{"name":"token","type":"address","indexed":true,"internalType":"address"},{"name":"creator","type":"address","indexed":true,"internalType":"address"},{"name":"name","type":"string","indexed":false,"internalType":"string"},{"name":"symbol","type":"string","indexed":false,"internalType":"string"},{"name":"supply","type":"uint256","indexed":false,"internalType":"uint256"}],"anonymous":false}],"bytecode":{"object":"0x6080604052348015600e575f5ffd5b50612a758061001c5f395ff3fe608060405260043610610049575f3560e01c80632a5c792a1461004d5780635b06053014610077578063634282af146100935780637b6e7975146100cf578063a9ccec361461010b575b5f5ffd5b348015610058575f5ffd5b50610061610135565b60405161006e9190610661565b60405180910390f35b610091600480360381019061008c9190610801565b6101c0565b005b34801561009e575f5ffd5b506100b960048036038101906100b49190610889565b6104e1565b6040516100c691906108c3565b60405180910390f35b3480156100da575f5ffd5b506100f560048036038101906100f091906108dc565b61051c565b60405161010291906108c3565b60405180910390f35b348015610116575f5ffd5b5061011f610563565b60405161012c9190610932565b60405180910390f35b606060018054806020026020016040519081016040528092919081815260200182805480156101b657602002820191905f5260205f20905b815f9054906101000a900473ffffffffffffffffffffffffffffffffffffffff1673ffffffffffffffffffffffffffffffffffffffff168152602001906001019080831161016d575b5050505050905090565b5f73ffffffffffffffffffffffffffffffffffffffff165f846040516101e6919061099d565b90815260200160405180910390205f9054906101000a900473ffffffffffffffffffffffffffffffffffffffff1673ffffffffffffffffffffffffffffffffffffffff161461026a576040517f08c379a000000000000000000000000000000000000000000000000000000000815260040161026190610a0d565b60405180910390fd5b5f81116102ac576040517f08c379a00000000000000000000000000000000000000000000000000000000081526004016102a390610a75565b60405180910390fd5b5f6509184e72a000826102bf9190610ac0565b905080341015610304576040517f08c379a00000000000000000000000000000000000000000000000000000000081526004016102fb90610b4b565b60405180910390fd5b5f84846040516103139061056d565b61031e929190610ba1565b604051809103905ff080158015610337573d5f5f3e3d5ffd5b509050805f8660405161034a919061099d565b90815260200160405180910390205f6101000a81548173ffffffffffffffffffffffffffffffffffffffff021916908373ffffffffffffffffffffffffffffffffffffffff160217905550600181908060018154018082558091505060019003905f5260205f20015f9091909190916101000a81548173ffffffffffffffffffffffffffffffffffffffff021916908373ffffffffffffffffffffffffffffffffffffffff1602179055508073ffffffffffffffffffffffffffffffffffffffff1663a9059cbb33856040518363ffffffff1660e01b8152600401610430929190610bd6565b6020604051808303815f875af115801561044c573d5f5f3e3d5ffd5b505050506040513d601f19601f820116820180604052508101906104709190610c32565b503373ffffffffffffffffffffffffffffffffffffffff168173ffffffffffffffffffffffffffffffffffffffff167f1a8ab442384acdb09c73bc5f71549c099dad32203f07e1655e0ebce05831f7498787876040516104d293929190610c5d565b60405180910390a35050505050565b600181815481106104f0575f80fd5b905f5260205f20015f915054906101000a900473ffffffffffffffffffffffffffffffffffffffff1681565b5f818051602081018201805184825260208301602085012081835280955050505050505f915054906101000a900473ffffffffffffffffffffffffffffffffffffffff1681565b6509184e72a00081565b611d9f80610ca183390190565b5f81519050919050565b5f82825260208201905092915050565b5f819050602082019050919050565b5f73ffffffffffffffffffffffffffffffffffffffff82169050919050565b5f6105cc826105a3565b9050919050565b6105dc816105c2565b82525050565b5f6105ed83836105d3565b60208301905092915050565b5f602082019050919050565b5f61060f8261057a565b6106198185610584565b935061062483610594565b805f5b8381101561065457815161063b88826105e2565b9750610646836105f9565b925050600181019050610627565b5085935050505092915050565b5f6020820190508181035f8301526106798184610605565b905092915050565b5f604051905090565b5f5ffd5b5f5ffd5b5f5ffd5b5f5ffd5b5f601f19601f8301169050919050565b7f4e487b71000000000000000000000000000000000000000000000000000000005f52604160045260245ffd5b6106e08261069a565b810181811067ffffffffffffffff821117156106ff576106fe6106aa565b5b80604052505050565b5f610711610681565b905061071d82826106d7565b919050565b5f67ffffffffffffffff82111561073c5761073b6106aa565b5b6107458261069a565b9050602081019050919050565b828183375f83830152505050565b5f61077261076d84610722565b610708565b90508281526020810184848401111561078e5761078d610696565b5b610799848285610752565b509392505050565b5f82601f8301126107b5576107b4610692565b5b81356107c5848260208601610760565b91505092915050565b5f819050919050565b6107e0816107ce565b81146107ea575f5ffd5b50565b5f813590506107fb816107d7565b92915050565b5f5f5f606084860312156108185761081761068a565b5b5f84013567ffffffffffffffff8111156108355761083461068e565b5b610841868287016107a1565b935050602084013567ffffffffffffffff8111156108625761086161068e565b5b61086e868287016107a1565b925050604061087f868287016107ed565b9150509250925092565b5f6020828403121561089e5761089d61068a565b5b5f6108ab848285016107ed565b91505092915050565b6108bd816105c2565b82525050565b5f6020820190506108d65f8301846108b4565b92915050565b5f602082840312156108f1576108f061068a565b5b5f82013567ffffffffffffffff81111561090e5761090d61068e565b5b61091a848285016107a1565b91505092915050565b61092c816107ce565b82525050565b5f6020820190506109455f830184610923565b92915050565b5f81519050919050565b5f81905092915050565b8281835e5f83830152505050565b5f6109778261094b565b6109818185610955565b935061099181856020860161095f565b80840191505092915050565b5f6109a8828461096d565b915081905092915050565b5f82825260208201905092915050565b7f546f6b656e20616c7265616479206578697374000000000000000000000000005f82015250565b5f6109f76013836109b3565b9150610a02826109c3565b602082019050919050565b5f6020820190508181035f830152610a24816109eb565b9050919050565b7f496e76616c696420737570706c790000000000000000000000000000000000005f82015250565b5f610a5f600e836109b3565b9150610a6a82610a2b565b602082019050919050565b5f6020820190508181035f830152610a8c81610a53565b9050919050565b7f4e487b71000000000000000000000000000000000000000000000000000000005f52601160045260245ffd5b5f610aca826107ce565b9150610ad5836107ce565b9250828202610ae3816107ce565b91508282048414831517610afa57610af9610a93565b5b5092915050565b7f6e6f7420656e6f7567682045544820746f204c61756e636820746f6b656e20005f82015250565b5f610b35601f836109b3565b9150610b4082610b01565b602082019050919050565b5f6020820190508181035f830152610b6281610b29565b9050919050565b5f610b738261094b565b610b7d81856109b3565b9350610b8d81856020860161095f565b610b968161069a565b840191505092915050565b5f6040820190508181035f830152610bb98185610b69565b90508181036020830152610bcd8184610b69565b90509392505050565b5f604082019050610be95f8301856108b4565b610bf66020830184610923565b9392505050565b5f8115159050919050565b610c1181610bfd565b8114610c1b575f5ffd5b50565b5f81519050610c2c81610c08565b92915050565b5f60208284031215610c4757610c4661068a565b5b5f610c5484828501610c1e565b91505092915050565b5f6060820190508181035f830152610c758186610b69565b90508181036020830152610c898185610b69565b9050610c986040830184610923565b94935050505056fe60a060405266038d7ea4c68000608090815250655af3107a4000600755348015610027575f5ffd5b50604051611d9f380380611d9f83398181016040528101906100499190610201565b8181816003908161005a9190610487565b50806004908161006a9190610487565b5050503360055f6101000a81548173ffffffffffffffffffffffffffffffffffffffff021916908373ffffffffffffffffffffffffffffffffffffffff1602179055505050610556565b5f604051905090565b5f5ffd5b5f5ffd5b5f5ffd5b5f5ffd5b5f601f19601f8301169050919050565b7f4e487b71000000000000000000000000000000000000000000000000000000005f52604160045260245ffd5b610113826100cd565b810181811067ffffffffffffffff82111715610132576101316100dd565b5b80604052505050565b5f6101446100b4565b9050610150828261010a565b919050565b5f67ffffffffffffffff82111561016f5761016e6100dd565b5b610178826100cd565b9050602081019050919050565b8281835e5f83830152505050565b5f6101a56101a084610155565b61013b565b9050828152602081018484840111156101c1576101c06100c9565b5b6101cc848285610185565b509392505050565b5f82601f8301126101e8576101e76100c5565b5b81516101f8848260208601610193565b91505092915050565b5f5f60408385031215610217576102166100bd565b5b5f83015167ffffffffffffffff811115610234576102336100c1565b5b610240858286016101d4565b925050602083015167ffffffffffffffff811115610261576102606100c1565b5b61026d858286016101d4565b9150509250929050565b5f81519050919050565b7f4e487b71000000000000000000000000000000000000000000000000000000005f52602260045260245ffd5b5f60028204905060018216806102c557607f821691505b6020821081036102d8576102d7610281565b5b50919050565b5f819050815f5260205f209050919050565b5f6020601f8301049050919050565b5f82821b905092915050565b5f6008830261033a7fffffffffffffffffffffffffffffffffffffffffffffffffffffffffffffffff826102ff565b61034486836102ff565b95508019841693508086168417925050509392505050565b5f819050919050565b5f819050919050565b5f61038861038361037e8461035c565b610365565b61035c565b9050919050565b5f819050919050565b6103a18361036e565b6103b56103ad8261038f565b84845461030b565b825550505050565b5f5f905090565b6103cc6103bd565b6103d7818484610398565b505050565b5b818110156103fa576103ef5f826103c4565b6001810190506103dd565b5050565b601f82111561043f57610410816102de565b610419846102f0565b81016020851015610428578190505b61043c610434856102f0565b8301826103dc565b50505b505050565b5f82821c905092915050565b5f61045f5f1984600802610444565b1980831691505092915050565b5f6104778383610450565b9150826002028217905092915050565b61049082610277565b67ffffffffffffffff8111156104a9576104a86100dd565b5b6104b382546102ae565b6104be8282856103fe565b5f60209050601f8311600181146104ef575f84156104dd578287015190505b6104e7858261046c565b86555061054e565b601f1984166104fd866102de565b5f5b82811015610524578489015182556001820191506020850194506020810190506104ff565b86831015610541578489015161053d601f891682610450565b8355505b6001600288020188555050505b505050505050565b60805161182a6105755f395f81816108ad0152610aee015261182a5ff3fe608060405260043610610101575f3560e01c806370a0823111610094578063a9059cbb11610063578063a9059cbb14610306578063c7876ea414610342578063dd62ed3e1461036c578063e4849b32146103a8578063eb91d37e146103d057610108565b806370a082311461026c5780639106d7ba146102a857806395d89b41146102d2578063a6f2ae3a146102fc57610108565b806323b872dd116100d057806323b872dd146101c6578063280d62ac14610202578063313ce5671461022c5780633ccfd60b1461025657610108565b806302d05d3f1461010c57806306fdde0314610136578063095ea7b31461016057806318160ddd1461019c57610108565b3661010857005b5f5ffd5b348015610117575f5ffd5b506101206103fa565b60405161012d91906110df565b60405180910390f35b348015610141575f5ffd5b5061014a61041f565b6040516101579190611168565b60405180910390f35b34801561016b575f5ffd5b50610186600480360381019061018191906111e9565b6104af565b6040516101939190611241565b60405180910390f35b3480156101a7575f5ffd5b506101b06104d1565b6040516101bd9190611269565b60405180910390f35b3480156101d1575f5ffd5b506101ec60048036038101906101e79190611282565b6104da565b6040516101f99190611241565b60405180910390f35b34801561020d575f5ffd5b50610216610508565b6040516102239190611269565b60405180910390f35b348015610237575f5ffd5b5061024061050e565b60405161024d91906112ed565b60405180910390f35b348015610261575f5ffd5b5061026a610516565b005b348015610277575f5ffd5b50610292600480360381019061028d9190611306565b61060c565b60405161029f9190611269565b60405180910390f35b3480156102b3575f5ffd5b506102bc610651565b6040516102c99190611269565b60405180910390f35b3480156102dd575f5ffd5b506102e6610657565b6040516102f39190611168565b60405180910390f35b6103046106e7565b005b348015610311575f5ffd5b5061032c600480360381019061032791906111e9565b610889565b6040516103399190611241565b60405180910390f35b34801561034d575f5ffd5b506103566108ab565b6040516103639190611269565b60405180910390f35b348015610377575f5ffd5b50610392600480360381019061038d9190611331565b6108cf565b60405161039f9190611269565b60405180910390f35b3480156103b3575f5ffd5b506103ce60048036038101906103c9919061136f565b610951565b005b3480156103db575f5ffd5b506103e4610ad6565b6040516103f19190611269565b60405180910390f35b60055f9054906101000a900473ffffffffffffffffffffffffffffffffffffffff1681565b60606003805461042e906113c7565b80601f016020809104026020016040519081016040528092919081815260200182805461045a906113c7565b80156104a55780601f1061047c576101008083540402835291602001916104a5565b820191905f5260205f20905b81548152906001019060200180831161048857829003601f168201915b5050505050905090565b5f5f6104b9610b1c565b90506104c6818585610b23565b600191505092915050565b5f600254905090565b5f5f6104e4610b1c565b90506104f1858285610b35565b6104fc858585610bc8565b60019150509392505050565b60075481565b5f6012905090565b60055f9054906101000a900473ffffffffffffffffffffffffffffffffffffffff1673ffffffffffffffffffffffffffffffffffffffff163373ffffffffffffffffffffffffffffffffffffffff16146105a5576040517f08c379a000000000000000000000000000000000000000000000000000000000815260040161059c90611441565b60405180910390fd5b60055f9054906101000a900473ffffffffffffffffffffffffffffffffffffffff1673ffffffffffffffffffffffffffffffffffffffff166108fc4790811502906040515f60405180830381858888f19350505050158015610609573d5f5f3e3d5ffd5b50565b5f5f5f8373ffffffffffffffffffffffffffffffffffffffff1673ffffffffffffffffffffffffffffffffffffffff1681526020019081526020015f20549050919050565b60065481565b606060048054610666906113c7565b80601f0160208091040260200160405190810160405280929190818152602001828054610692906113c7565b80156106dd5780601f106106b4576101008083540402835291602001916106dd565b820191905f5260205f20905b8154815290600101906020018083116106c057829003601f168201915b5050505050905090565b5f3411610729576040517f08c379a0000000000000000000000000000000000000000000000000000000008152600401610720906114a9565b60405180910390fd5b5f610732610ad6565b90505f81346107419190611521565b90505f8111610785576040517f08c379a000000000000000000000000000000000000000000000000000000000815260040161077c9061159b565b60405180910390fd5b806107b060055f9054906101000a900473ffffffffffffffffffffffffffffffffffffffff1661060c565b10156107f1576040517f08c379a00000000000000000000000000000000000000000000000000000000081526004016107e890611603565b60405180910390fd5b61081d60055f9054906101000a900473ffffffffffffffffffffffffffffffffffffffff163383610bc8565b8060065f82825461082e9190611621565b925050819055503373ffffffffffffffffffffffffffffffffffffffff167f28cab0d660ed8aedd61a8c9db00b97f6a2d67e07d87795994f440b18bc5f1aa3828460405161087d929190611654565b60405180910390a25050565b5f5f610893610b1c565b90506108a0818585610bc8565b600191505092915050565b7f000000000000000000000000000000000000000000000000000000000000000081565b5f60015f8473ffffffffffffffffffffffffffffffffffffffff1673ffffffffffffffffffffffffffffffffffffffff1681526020019081526020015f205f8373ffffffffffffffffffffffffffffffffffffffff1673ffffffffffffffffffffffffffffffffffffffff1681526020019081526020015f2054905092915050565b8061095b3361060c565b101561099c576040517f08c379a0000000000000000000000000000000000000000000000000000000008152600401610993906116c5565b60405180910390fd5b5f6109a5610ad6565b90505f81836109b491906116e3565b9050804710156109f9576040517f08c379a00000000000000000000000000000000000000000000000000000000081526004016109f09061176e565b60405180910390fd5b610a253360055f9054906101000a900473ffffffffffffffffffffffffffffffffffffffff1685610bc8565b8260065f828254610a36919061178c565b925050819055503373ffffffffffffffffffffffffffffffffffffffff166108fc8290811502906040515f60405180830381858888f19350505050158015610a80573d5f5f3e3d5ffd5b503373ffffffffffffffffffffffffffffffffffffffff167f35ea94addbc62df281ade49cc2ad9b3d9259166170cf702928b4ddc045f7256e8484604051610ac9929190611654565b60405180910390a2505050565b5f610adf6104d1565b600754610aec91906116e3565b7f0000000000000000000000000000000000000000000000000000000000000000610b179190611621565b905090565b5f33905090565b610b308383836001610cb8565b505050565b5f610b4084846108cf565b90507fffffffffffffffffffffffffffffffffffffffffffffffffffffffffffffffff811015610bc25781811015610bb3578281836040517ffb8f41b2000000000000000000000000000000000000000000000000000000008152600401610baa939291906117bf565b60405180910390fd5b610bc184848484035f610cb8565b5b50505050565b5f73ffffffffffffffffffffffffffffffffffffffff168373ffffffffffffffffffffffffffffffffffffffff1603610c38575f6040517f96c6fd1e000000000000000000000000000000000000000000000000000000008152600401610c2f91906110df565b60405180910390fd5b5f73ffffffffffffffffffffffffffffffffffffffff168273ffffffffffffffffffffffffffffffffffffffff1603610ca8575f6040517fec442f05000000000000000000000000000000000000000000000000000000008152600401610c9f91906110df565b60405180910390fd5b610cb3838383610e87565b505050565b5f73ffffffffffffffffffffffffffffffffffffffff168473ffffffffffffffffffffffffffffffffffffffff1603610d28575f6040517fe602df05000000000000000000000000000000000000000000000000000000008152600401610d1f91906110df565b60405180910390fd5b5f73ffffffffffffffffffffffffffffffffffffffff168373ffffffffffffffffffffffffffffffffffffffff1603610d98575f6040517f94280d62000000000000000000000000000000000000000000000000000000008152600401610d8f91906110df565b60405180910390fd5b8160015f8673ffffffffffffffffffffffffffffffffffffffff1673ffffffffffffffffffffffffffffffffffffffff1681526020019081526020015f205f8573ffffffffffffffffffffffffffffffffffffffff1673ffffffffffffffffffffffffffffffffffffffff1681526020019081526020015f20819055508015610e81578273ffffffffffffffffffffffffffffffffffffffff168473ffffffffffffffffffffffffffffffffffffffff167f8c5be1e5ebec7d5bd14f71427d1e84f3dd0314c0f7b2291e5b200ac8c7c3b92584604051610e789190611269565b60405180910390a35b50505050565b5f73ffffffffffffffffffffffffffffffffffffffff168373ffffffffffffffffffffffffffffffffffffffff1603610ed7578060025f828254610ecb9190611621565b92505081905550610fa5565b5f5f5f8573ffffffffffffffffffffffffffffffffffffffff1673ffffffffffffffffffffffffffffffffffffffff1681526020019081526020015f2054905081811015610f60578381836040517fe450d38c000000000000000000000000000000000000000000000000000000008152600401610f57939291906117bf565b60405180910390fd5b8181035f5f8673ffffffffffffffffffffffffffffffffffffffff1673ffffffffffffffffffffffffffffffffffffffff1681526020019081526020015f2081905550505b5f73ffffffffffffffffffffffffffffffffffffffff168273ffffffffffffffffffffffffffffffffffffffff1603610fec578060025f8282540392505081905550611036565b805f5f8473ffffffffffffffffffffffffffffffffffffffff1673ffffffffffffffffffffffffffffffffffffffff1681526020019081526020015f205f82825401925050819055505b8173ffffffffffffffffffffffffffffffffffffffff168373ffffffffffffffffffffffffffffffffffffffff167fddf252ad1be2c89b69c2b068fc378daa952ba7f163c4a11628f55a4df523b3ef836040516110939190611269565b60405180910390a3505050565b5f73ffffffffffffffffffffffffffffffffffffffff82169050919050565b5f6110c9826110a0565b9050919050565b6110d9816110bf565b82525050565b5f6020820190506110f25f8301846110d0565b92915050565b5f81519050919050565b5f82825260208201905092915050565b8281835e5f83830152505050565b5f601f19601f8301169050919050565b5f61113a826110f8565b6111448185611102565b9350611154818560208601611112565b61115d81611120565b840191505092915050565b5f6020820190508181035f8301526111808184611130565b905092915050565b5f5ffd5b611195816110bf565b811461119f575f5ffd5b50565b5f813590506111b08161118c565b92915050565b5f819050919050565b6111c8816111b6565b81146111d2575f5ffd5b50565b5f813590506111e3816111bf565b92915050565b5f5f604083850312156111ff576111fe611188565b5b5f61120c858286016111a2565b925050602061121d858286016111d5565b9150509250929050565b5f8115159050919050565b61123b81611227565b82525050565b5f6020820190506112545f830184611232565b92915050565b611263816111b6565b82525050565b5f60208201905061127c5f83018461125a565b92915050565b5f5f5f6060848603121561129957611298611188565b5b5f6112a6868287016111a2565b93505060206112b7868287016111a2565b92505060406112c8868287016111d5565b9150509250925092565b5f60ff82169050919050565b6112e7816112d2565b82525050565b5f6020820190506113005f8301846112de565b92915050565b5f6020828403121561131b5761131a611188565b5b5f611328848285016111a2565b91505092915050565b5f5f6040838503121561134757611346611188565b5b5f611354858286016111a2565b9250506020611365858286016111a2565b9150509250929050565b5f6020828403121561138457611383611188565b5b5f611391848285016111d5565b91505092915050565b7f4e487b71000000000000000000000000000000000000000000000000000000005f52602260045260245ffd5b5f60028204905060018216806113de57607f821691505b6020821081036113f1576113f061139a565b5b50919050565b7f4f6e6c792063726561746f722063616e207769746864726177000000000000005f82015250565b5f61142b601983611102565b9150611436826113f7565b602082019050919050565b5f6020820190508181035f8301526114588161141f565b9050919050565b7f53656e642045544820746f2062757920746f6b656e20000000000000000000005f82015250565b5f611493601683611102565b915061149e8261145f565b602082019050919050565b5f6020820190508181035f8301526114c081611487565b9050919050565b7f4e487b71000000000000000000000000000000000000000000000000000000005f52601260045260245ffd5b7f4e487b71000000000000000000000000000000000000000000000000000000005f52601160045260245ffd5b5f61152b826111b6565b9150611536836111b6565b925082611546576115456114c7565b5b828204905092915050565b7f4e6f7420656e6f7567682045544820666f72203120746f6b656e0000000000005f82015250565b5f611585601a83611102565b915061159082611551565b602082019050919050565b5f6020820190508181035f8301526115b281611579565b9050919050565b7f4e6f7420656e6f75676820746f6b6e7320617661696c61626c650000000000005f82015250565b5f6115ed601a83611102565b91506115f8826115b9565b602082019050919050565b5f6020820190508181035f83015261161a816115e1565b9050919050565b5f61162b826111b6565b9150611636836111b6565b925082820190508082111561164e5761164d6114f4565b5b92915050565b5f6040820190506116675f83018561125a565b611674602083018461125a565b9392505050565b7f596f7520646f6e7420656e6f75676820746f6b656e73000000000000000000005f82015250565b5f6116af601683611102565b91506116ba8261167b565b602082019050919050565b5f6020820190508181035f8301526116dc816116a3565b9050919050565b5f6116ed826111b6565b91506116f8836111b6565b9250828202611706816111b6565b9150828204841483151761171d5761171c6114f4565b5b5092915050565b7f436f6e747261637420646f6573206e6f74206861766520656e6f7567680000005f82015250565b5f611758601d83611102565b915061176382611724565b602082019050919050565b5f6020820190508181035f8301526117858161174c565b9050919050565b5f611796826111b6565b91506117a1836111b6565b92508282039050818111156117b9576117b86114f4565b5b92915050565b5f6060820190506117d25f8301866110d0565b6117df602083018561125a565b6117ec604083018461125a565b94935050505056fea264697066735822122031f7640398b794dda8b8da3f7f5013d4ca13ba2c17da862810a56c1e87a41d3964736f6c634300081e0033a2646970667358221220f7e9672c455898d83ca610e27928e89937f9802996ce5437d7a5595c7c38e04464736f6c634300081e0033","linkReferences":{}},"methodIdentifiers":{"LAUNCH_PRICE_PER_TOKEN()":"a9ccec36","allTokens(uint256)":"634282af","createToken(string,string,uint256)":"5b060530","getAllTokens()":"2a5c792a","tokenByName(string)":"7b6e7975"},"id":27}